{
	"data": {
		"bytecode": {
			"linkReferences": {},
			"object": "608060405234801561000f575f80fd5b50604051610f02380380610f028339818101604052810190610031919061022c565b60405180608001604052808573ffffffffffffffffffffffffffffffffffffffff1681526020018473ffffffffffffffffffffffffffffffffffffffff1681526020018373ffffffffffffffffffffffffffffffffffffffff1681526020018273ffffffffffffffffffffffffffffffffffffffff1681525060015f820151815f015f6101000a81548173ffffffffffffffffffffffffffffffffffffffff021916908373ffffffffffffffffffffffffffffffffffffffff1602179055506020820151816001015f6101000a81548173ffffffffffffffffffffffffffffffffffffffff021916908373ffffffffffffffffffffffffffffffffffffffff1602179055506040820151816002015f6101000a81548173ffffffffffffffffffffffffffffffffffffffff021916908373ffffffffffffffffffffffffffffffffffffffff1602179055506060820151816003015f6101000a81548173ffffffffffffffffffffffffffffffffffffffff021916908373ffffffffffffffffffffffffffffffffffffffff16021790555090505050505050610290565b5f80fd5b5f73ffffffffffffffffffffffffffffffffffffffff82169050919050565b5f6101fb826101d2565b9050919050565b61020b816101f1565b8114610215575f80fd5b50565b5f8151905061022681610202565b92915050565b5f805f8060808587031215610244576102436101ce565b5b5f61025187828801610218565b945050602061026287828801610218565b935050604061027387828801610218565b925050606061028487828801610218565b91505092959194509250565b610c658061029d5f395ff3fe608060405234801561000f575f80fd5b506004361061004a575f3560e01c8063096d99a91461004e5780632eb4bf481461007f57806346fe8ca71461009b578063642f2eaf146100cb575b5f80fd5b61006860048036038101906100639190610526565b6100fc565b604051610076929190610600565b60405180910390f35b61009960048036038101906100949190610784565b610277565b005b6100b560048036038101906100b091906107f0565b6103f8565b6040516100c29190610864565b60405180910390f35b6100e560048036038101906100e09190610526565b61040b565b6040516100f3929190610600565b60405180910390f35b60605f8073ffffffffffffffffffffffffffffffffffffffff165f808581526020019081526020015f206001015f9054906101000a900473ffffffffffffffffffffffffffffffffffffffff1673ffffffffffffffffffffffffffffffffffffffff160361019f576040517f08c379a0000000000000000000000000000000000000000000000000000000008152600401610196906108d7565b60405180910390fd5b5f808481526020019081526020015f205f015f808581526020019081526020015f206001015f9054906101000a900473ffffffffffffffffffffffffffffffffffffffff168180546101f090610922565b80601f016020809104026020016040519081016040528092919081815260200182805461021c90610922565b80156102675780601f1061023e57610100808354040283529160200191610267565b820191905f5260205f20905b81548152906001019060200180831161024a57829003601f168201915b5050505050915091509150915091565b5f73ffffffffffffffffffffffffffffffffffffffff165f808581526020019081526020015f206001015f9054906101000a900473ffffffffffffffffffffffffffffffffffffffff1673ffffffffffffffffffffffffffffffffffffffff1614610317576040517f08c379a000000000000000000000000000000000000000000000000000000000815260040161030e9061099c565b60405180910390fd5b60405180604001604052808381526020018273ffffffffffffffffffffffffffffffffffffffff168152505f808581526020019081526020015f205f820151815f0190816103659190610b60565b506020820151816001015f6101000a81548173ffffffffffffffffffffffffffffffffffffffff021916908373ffffffffffffffffffffffffffffffffffffffff1602179055509050508073ffffffffffffffffffffffffffffffffffffffff16837f953621e3abeb99ad4601ac6409b1594d4bbac12ad0b9aced83b4c4c710bd910c60405160405180910390a3505050565b5f61040382846104cf565b905092915050565b5f602052805f5260405f205f91509050805f01805461042990610922565b80601f016020809104026020016040519081016040528092919081815260200182805461045590610922565b80156104a05780601f10610477576101008083540402835291602001916104a0565b820191905f5260205f20905b81548152906001019060200180831161048357829003601f168201915b505050505090806001015f9054906101000a900473ffffffffffffffffffffffffffffffffffffffff16905082565b5f81838051906020012014905092915050565b5f604051905090565b5f80fd5b5f80fd5b5f819050919050565b610505816104f3565b811461050f575f80fd5b50565b5f81359050610520816104fc565b92915050565b5f6020828403121561053b5761053a6104eb565b5b5f61054884828501610512565b91505092915050565b5f81519050919050565b5f82825260208201905092915050565b8281835e5f83830152505050565b5f601f19601f8301169050919050565b5f61059382610551565b61059d818561055b565b93506105ad81856020860161056b565b6105b681610579565b840191505092915050565b5f73ffffffffffffffffffffffffffffffffffffffff82169050919050565b5f6105ea826105c1565b9050919050565b6105fa816105e0565b82525050565b5f6040820190508181035f8301526106188185610589565b905061062760208301846105f1565b9392505050565b5f80fd5b5f80fd5b7f4e487b71000000000000000000000000000000000000000000000000000000005f52604160045260245ffd5b61066c82610579565b810181811067ffffffffffffffff8211171561068b5761068a610636565b5b80604052505050565b5f61069d6104e2565b90506106a98282610663565b919050565b5f67ffffffffffffffff8211156106c8576106c7610636565b5b6106d182610579565b9050602081019050919050565b828183375f83830152505050565b5f6106fe6106f9846106ae565b610694565b90508281526020810184848401111561071a57610719610632565b5b6107258482856106de565b509392505050565b5f82601f8301126107415761074061062e565b5b81356107518482602086016106ec565b91505092915050565b610763816105e0565b811461076d575f80fd5b50565b5f8135905061077e8161075a565b92915050565b5f805f6060848603121561079b5761079a6104eb565b5b5f6107a886828701610512565b935050602084013567ffffffffffffffff8111156107c9576107c86104ef565b5b6107d58682870161072d565b92505060406107e686828701610770565b9150509250925092565b5f8060408385031215610806576108056104eb565b5b5f61081385828601610512565b925050602083013567ffffffffffffffff811115610834576108336104ef565b5b6108408582860161072d565b9150509250929050565b5f8115159050919050565b61085e8161084a565b82525050565b5f6020820190506108775f830184610855565b92915050565b5f82825260208201905092915050565b7f5472616e73616374696f6e20646f6573206e6f742065786973740000000000005f82015250565b5f6108c1601a8361087d565b91506108cc8261088d565b602082019050919050565b5f6020820190508181035f8301526108ee816108b5565b9050919050565b7f4e487b71000000000000000000000000000000000000000000000000000000005f52602260045260245ffd5b5f600282049050600182168061093957607f821691505b60208210810361094c5761094b6108f5565b5b50919050565b7f5472616e73616374696f6e20616c7265616479206578697374730000000000005f82015250565b5f610986601a8361087d565b915061099182610952565b602082019050919050565b5f6020820190508181035f8301526109b38161097a565b9050919050565b5f819050815f5260205f209050919050565b5f6020601f8301049050919050565b5f82821b905092915050565b5f60088302610a167fffffffffffffffffffffffffffffffffffffffffffffffffffffffffffffffff826109db565b610a2086836109db565b95508019841693508086168417925050509392505050565b5f819050919050565b5f819050919050565b5f610a64610a5f610a5a84610a38565b610a41565b610a38565b9050919050565b5f819050919050565b610a7d83610a4a565b610a91610a8982610a6b565b8484546109e7565b825550505050565b5f90565b610aa5610a99565b610ab0818484610a74565b505050565b5b81811015610ad357610ac85f82610a9d565b600181019050610ab6565b5050565b601f821115610b1857610ae9816109ba565b610af2846109cc565b81016020851015610b01578190505b610b15610b0d856109cc565b830182610ab5565b50505b505050565b5f82821c905092915050565b5f610b385f1984600802610b1d565b1980831691505092915050565b5f610b508383610b29565b9150826002028217905092915050565b610b6982610551565b67ffffffffffffffff811115610b8257610b81610636565b5b610b8c8254610922565b610b97828285610ad7565b5f60209050601f831160018114610bc8575f8415610bb6578287015190505b610bc08582610b45565b865550610c27565b601f198416610bd6866109ba565b5f5b82811015610bfd57848901518255600182019150602085019450602081019050610bd8565b86831015610c1a5784890151610c16601f891682610b29565b8355505b6001600288020188555050505b50505050505056fea264697066735822122025813cefe08a20d1ce96985f1333ba3dfc31678ecd0e4b013bd6d81a397a5de164736f6c634300081a0033",
			"opcodes": "PUSH1 0x80 PUSH1 0x40 MSTORE CALLVALUE DUP1 ISZERO PUSH2 0xF JUMPI PUSH0 DUP1 REVERT JUMPDEST POP PUSH1 0x40 MLOAD PUSH2 0xF02 CODESIZE SUB DUP1 PUSH2 0xF02 DUP4 CODECOPY DUP2 DUP2 ADD PUSH1 0x40 MSTORE DUP2 ADD SWAP1 PUSH2 0x31 SWAP2 SWAP1 PUSH2 0x22C JUMP JUMPDEST PUSH1 0x40 MLOAD DUP1 PUSH1 0x80 ADD PUSH1 0x40 MSTORE DUP1 DUP6 PUSH20 0xFFFFFFFFFFFFFFFFFFFFFFFFFFFFFFFFFFFFFFFF AND DUP2 MSTORE PUSH1 0x20 ADD DUP5 PUSH20 0xFFFFFFFFFFFFFFFFFFFFFFFFFFFFFFFFFFFFFFFF AND DUP2 MSTORE PUSH1 0x20 ADD DUP4 PUSH20 0xFFFFFFFFFFFFFFFFFFFFFFFFFFFFFFFFFFFFFFFF AND DUP2 MSTORE PUSH1 0x20 ADD DUP3 PUSH20 0xFFFFFFFFFFFFFFFFFFFFFFFFFFFFFFFFFFFFFFFF AND DUP2 MSTORE POP PUSH1 0x1 PUSH0 DUP3 ADD MLOAD DUP2 PUSH0 ADD PUSH0 PUSH2 0x100 EXP DUP2 SLOAD DUP2 PUSH20 0xFFFFFFFFFFFFFFFFFFFFFFFFFFFFFFFFFFFFFFFF MUL NOT AND SWAP1 DUP4 PUSH20 0xFFFFFFFFFFFFFFFFFFFFFFFFFFFFFFFFFFFFFFFF AND MUL OR SWAP1 SSTORE POP PUSH1 0x20 DUP3 ADD MLOAD DUP2 PUSH1 0x1 ADD PUSH0 PUSH2 0x100 EXP DUP2 SLOAD DUP2 PUSH20 0xFFFFFFFFFFFFFFFFFFFFFFFFFFFFFFFFFFFFFFFF MUL NOT AND SWAP1 DUP4 PUSH20 0xFFFFFFFFFFFFFFFFFFFFFFFFFFFFFFFFFFFFFFFF AND MUL OR SWAP1 SSTORE POP PUSH1 0x40 DUP3 ADD MLOAD DUP2 PUSH1 0x2 ADD PUSH0 PUSH2 0x100 EXP DUP2 SLOAD DUP2 PUSH20 0xFFFFFFFFFFFFFFFFFFFFFFFFFFFFFFFFFFFFFFFF MUL NOT AND SWAP1 DUP4 PUSH20 0xFFFFFFFFFFFFFFFFFFFFFFFFFFFFFFFFFFFFFFFF AND MUL OR SWAP1 SSTORE POP PUSH1 0x60 DUP3 ADD MLOAD DUP2 PUSH1 0x3 ADD PUSH0 PUSH2 0x100 EXP DUP2 SLOAD DUP2 PUSH20 0xFFFFFFFFFFFFFFFFFFFFFFFFFFFFFFFFFFFFFFFF MUL NOT AND SWAP1 DUP4 PUSH20 0xFFFFFFFFFFFFFFFFFFFFFFFFFFFFFFFFFFFFFFFF AND MUL OR SWAP1 SSTORE POP SWAP1 POP POP POP POP POP POP PUSH2 0x290 JUMP JUMPDEST PUSH0 DUP1 REVERT JUMPDEST PUSH0 PUSH20 0xFFFFFFFFFFFFFFFFFFFFFFFFFFFFFFFFFFFFFFFF DUP3 AND SWAP1 POP SWAP2 SWAP1 POP JUMP JUMPDEST PUSH0 PUSH2 0x1FB DUP3 PUSH2 0x1D2 JUMP JUMPDEST SWAP1 POP SWAP2 SWAP1 POP JUMP JUMPDEST PUSH2 0x20B DUP2 PUSH2 0x1F1 JUMP JUMPDEST DUP2 EQ PUSH2 0x215 JUMPI PUSH0 DUP1 REVERT JUMPDEST POP JUMP JUMPDEST PUSH0 DUP2 MLOAD SWAP1 POP PUSH2 0x226 DUP2 PUSH2 0x202 JUMP JUMPDEST SWAP3 SWAP2 POP POP JUMP JUMPDEST PUSH0 DUP1 PUSH0 DUP1 PUSH1 0x80 DUP6 DUP8 SUB SLT ISZERO PUSH2 0x244 JUMPI PUSH2 0x243 PUSH2 0x1CE JUMP JUMPDEST JUMPDEST PUSH0 PUSH2 0x251 DUP8 DUP3 DUP9 ADD PUSH2 0x218 JUMP JUMPDEST SWAP5 POP POP PUSH1 0x20 PUSH2 0x262 DUP8 DUP3 DUP9 ADD PUSH2 0x218 JUMP JUMPDEST SWAP4 POP POP PUSH1 0x40 PUSH2 0x273 DUP8 DUP3 DUP9 ADD PUSH2 0x218 JUMP JUMPDEST SWAP3 POP POP PUSH1 0x60 PUSH2 0x284 DUP8 DUP3 DUP9 ADD PUSH2 0x218 JUMP JUMPDEST SWAP2 POP POP SWAP3 SWAP6 SWAP2 SWAP5 POP SWAP3 POP JUMP JUMPDEST PUSH2 0xC65 DUP1 PUSH2 0x29D PUSH0 CODECOPY PUSH0 RETURN INVALID PUSH1 0x80 PUSH1 0x40 MSTORE CALLVALUE DUP1 ISZERO PUSH2 0xF JUMPI PUSH0 DUP1 REVERT JUMPDEST POP PUSH1 0x4 CALLDATASIZE LT PUSH2 0x4A JUMPI PUSH0 CALLDATALOAD PUSH1 0xE0 SHR DUP1 PUSH4 0x96D99A9 EQ PUSH2 0x4E JUMPI DUP1 PUSH4 0x2EB4BF48 EQ PUSH2 0x7F JUMPI DUP1 PUSH4 0x46FE8CA7 EQ PUSH2 0x9B JUMPI DUP1 PUSH4 0x642F2EAF EQ PUSH2 0xCB JUMPI JUMPDEST PUSH0 DUP1 REVERT JUMPDEST PUSH2 0x68 PUSH1 0x4 DUP1 CALLDATASIZE SUB DUP2 ADD SWAP1 PUSH2 0x63 SWAP2 SWAP1 PUSH2 0x526 JUMP JUMPDEST PUSH2 0xFC JUMP JUMPDEST PUSH1 0x40 MLOAD PUSH2 0x76 SWAP3 SWAP2 SWAP1 PUSH2 0x600 JUMP JUMPDEST PUSH1 0x40 MLOAD DUP1 SWAP2 SUB SWAP1 RETURN JUMPDEST PUSH2 0x99 PUSH1 0x4 DUP1 CALLDATASIZE SUB DUP2 ADD SWAP1 PUSH2 0x94 SWAP2 SWAP1 PUSH2 0x784 JUMP JUMPDEST PUSH2 0x277 JUMP JUMPDEST STOP JUMPDEST PUSH2 0xB5 PUSH1 0x4 DUP1 CALLDATASIZE SUB DUP2 ADD SWAP1 PUSH2 0xB0 SWAP2 SWAP1 PUSH2 0x7F0 JUMP JUMPDEST PUSH2 0x3F8 JUMP JUMPDEST PUSH1 0x40 MLOAD PUSH2 0xC2 SWAP2 SWAP1 PUSH2 0x864 JUMP JUMPDEST PUSH1 0x40 MLOAD DUP1 SWAP2 SUB SWAP1 RETURN JUMPDEST PUSH2 0xE5 PUSH1 0x4 DUP1 CALLDATASIZE SUB DUP2 ADD SWAP1 PUSH2 0xE0 SWAP2 SWAP1 PUSH2 0x526 JUMP JUMPDEST PUSH2 0x40B JUMP JUMPDEST PUSH1 0x40 MLOAD PUSH2 0xF3 SWAP3 SWAP2 SWAP1 PUSH2 0x600 JUMP JUMPDEST PUSH1 0x40 MLOAD DUP1 SWAP2 SUB SWAP1 RETURN JUMPDEST PUSH1 0x60 PUSH0 DUP1 PUSH20 0xFFFFFFFFFFFFFFFFFFFFFFFFFFFFFFFFFFFFFFFF AND PUSH0 DUP1 DUP6 DUP2 MSTORE PUSH1 0x20 ADD SWAP1 DUP2 MSTORE PUSH1 0x20 ADD PUSH0 KECCAK256 PUSH1 0x1 ADD PUSH0 SWAP1 SLOAD SWAP1 PUSH2 0x100 EXP SWAP1 DIV PUSH20 0xFFFFFFFFFFFFFFFFFFFFFFFFFFFFFFFFFFFFFFFF AND PUSH20 0xFFFFFFFFFFFFFFFFFFFFFFFFFFFFFFFFFFFFFFFF AND SUB PUSH2 0x19F JUMPI PUSH1 0x40 MLOAD PUSH32 0x8C379A000000000000000000000000000000000000000000000000000000000 DUP2 MSTORE PUSH1 0x4 ADD PUSH2 0x196 SWAP1 PUSH2 0x8D7 JUMP JUMPDEST PUSH1 0x40 MLOAD DUP1 SWAP2 SUB SWAP1 REVERT JUMPDEST PUSH0 DUP1 DUP5 DUP2 MSTORE PUSH1 0x20 ADD SWAP1 DUP2 MSTORE PUSH1 0x20 ADD PUSH0 KECCAK256 PUSH0 ADD PUSH0 DUP1 DUP6 DUP2 MSTORE PUSH1 0x20 ADD SWAP1 DUP2 MSTORE PUSH1 0x20 ADD PUSH0 KECCAK256 PUSH1 0x1 ADD PUSH0 SWAP1 SLOAD SWAP1 PUSH2 0x100 EXP SWAP1 DIV PUSH20 0xFFFFFFFFFFFFFFFFFFFFFFFFFFFFFFFFFFFFFFFF AND DUP2 DUP1 SLOAD PUSH2 0x1F0 SWAP1 PUSH2 0x922 JUMP JUMPDEST DUP1 PUSH1 0x1F ADD PUSH1 0x20 DUP1 SWAP2 DIV MUL PUSH1 0x20 ADD PUSH1 0x40 MLOAD SWAP1 DUP2 ADD PUSH1 0x40 MSTORE DUP1 SWAP3 SWAP2 SWAP1 DUP2 DUP2 MSTORE PUSH1 0x20 ADD DUP3 DUP1 SLOAD PUSH2 0x21C SWAP1 PUSH2 0x922 JUMP JUMPDEST DUP1 ISZERO PUSH2 0x267 JUMPI DUP1 PUSH1 0x1F LT PUSH2 0x23E JUMPI PUSH2 0x100 DUP1 DUP4 SLOAD DIV MUL DUP4 MSTORE SWAP2 PUSH1 0x20 ADD SWAP2 PUSH2 0x267 JUMP JUMPDEST DUP3 ADD SWAP2 SWAP1 PUSH0 MSTORE PUSH1 0x20 PUSH0 KECCAK256 SWAP1 JUMPDEST DUP2 SLOAD DUP2 MSTORE SWAP1 PUSH1 0x1 ADD SWAP1 PUSH1 0x20 ADD DUP1 DUP4 GT PUSH2 0x24A JUMPI DUP3 SWAP1 SUB PUSH1 0x1F AND DUP3 ADD SWAP2 JUMPDEST POP POP POP POP POP SWAP2 POP SWAP2 POP SWAP2 POP SWAP2 POP SWAP2 JUMP JUMPDEST PUSH0 PUSH20 0xFFFFFFFFFFFFFFFFFFFFFFFFFFFFFFFFFFFFFFFF AND PUSH0 DUP1 DUP6 DUP2 MSTORE PUSH1 0x20 ADD SWAP1 DUP2 MSTORE PUSH1 0x20 ADD PUSH0 KECCAK256 PUSH1 0x1 ADD PUSH0 SWAP1 SLOAD SWAP1 PUSH2 0x100 EXP SWAP1 DIV PUSH20 0xFFFFFFFFFFFFFFFFFFFFFFFFFFFFFFFFFFFFFFFF AND PUSH20 0xFFFFFFFFFFFFFFFFFFFFFFFFFFFFFFFFFFFFFFFF AND EQ PUSH2 0x317 JUMPI PUSH1 0x40 MLOAD PUSH32 0x8C379A000000000000000000000000000000000000000000000000000000000 DUP2 MSTORE PUSH1 0x4 ADD PUSH2 0x30E SWAP1 PUSH2 0x99C JUMP JUMPDEST PUSH1 0x40 MLOAD DUP1 SWAP2 SUB SWAP1 REVERT JUMPDEST PUSH1 0x40 MLOAD DUP1 PUSH1 0x40 ADD PUSH1 0x40 MSTORE DUP1 DUP4 DUP2 MSTORE PUSH1 0x20 ADD DUP3 PUSH20 0xFFFFFFFFFFFFFFFFFFFFFFFFFFFFFFFFFFFFFFFF AND DUP2 MSTORE POP PUSH0 DUP1 DUP6 DUP2 MSTORE PUSH1 0x20 ADD SWAP1 DUP2 MSTORE PUSH1 0x20 ADD PUSH0 KECCAK256 PUSH0 DUP3 ADD MLOAD DUP2 PUSH0 ADD SWAP1 DUP2 PUSH2 0x365 SWAP2 SWAP1 PUSH2 0xB60 JUMP JUMPDEST POP PUSH1 0x20 DUP3 ADD MLOAD DUP2 PUSH1 0x1 ADD PUSH0 PUSH2 0x100 EXP DUP2 SLOAD DUP2 PUSH20 0xFFFFFFFFFFFFFFFFFFFFFFFFFFFFFFFFFFFFFFFF MUL NOT AND SWAP1 DUP4 PUSH20 0xFFFFFFFFFFFFFFFFFFFFFFFFFFFFFFFFFFFFFFFF AND MUL OR SWAP1 SSTORE POP SWAP1 POP POP DUP1 PUSH20 0xFFFFFFFFFFFFFFFFFFFFFFFFFFFFFFFFFFFFFFFF AND DUP4 PUSH32 0x953621E3ABEB99AD4601AC6409B1594D4BBAC12AD0B9ACED83B4C4C710BD910C PUSH1 0x40 MLOAD PUSH1 0x40 MLOAD DUP1 SWAP2 SUB SWAP1 LOG3 POP POP POP JUMP JUMPDEST PUSH0 PUSH2 0x403 DUP3 DUP5 PUSH2 0x4CF JUMP JUMPDEST SWAP1 POP SWAP3 SWAP2 POP POP JUMP JUMPDEST PUSH0 PUSH1 0x20 MSTORE DUP1 PUSH0 MSTORE PUSH1 0x40 PUSH0 KECCAK256 PUSH0 SWAP2 POP SWAP1 POP DUP1 PUSH0 ADD DUP1 SLOAD PUSH2 0x429 SWAP1 PUSH2 0x922 JUMP JUMPDEST DUP1 PUSH1 0x1F ADD PUSH1 0x20 DUP1 SWAP2 DIV MUL PUSH1 0x20 ADD PUSH1 0x40 MLOAD SWAP1 DUP2 ADD PUSH1 0x40 MSTORE DUP1 SWAP3 SWAP2 SWAP1 DUP2 DUP2 MSTORE PUSH1 0x20 ADD DUP3 DUP1 SLOAD PUSH2 0x455 SWAP1 PUSH2 0x922 JUMP JUMPDEST DUP1 ISZERO PUSH2 0x4A0 JUMPI DUP1 PUSH1 0x1F LT PUSH2 0x477 JUMPI PUSH2 0x100 DUP1 DUP4 SLOAD DIV MUL DUP4 MSTORE SWAP2 PUSH1 0x20 ADD SWAP2 PUSH2 0x4A0 JUMP JUMPDEST DUP3 ADD SWAP2 SWAP1 PUSH0 MSTORE PUSH1 0x20 PUSH0 KECCAK256 SWAP1 JUMPDEST DUP2 SLOAD DUP2 MSTORE SWAP1 PUSH1 0x1 ADD SWAP1 PUSH1 0x20 ADD DUP1 DUP4 GT PUSH2 0x483 JUMPI DUP3 SWAP1 SUB PUSH1 0x1F AND DUP3 ADD SWAP2 JUMPDEST POP POP POP POP POP SWAP1 DUP1 PUSH1 0x1 ADD PUSH0 SWAP1 SLOAD SWAP1 PUSH2 0x100 EXP SWAP1 DIV PUSH20 0xFFFFFFFFFFFFFFFFFFFFFFFFFFFFFFFFFFFFFFFF AND SWAP1 POP DUP3 JUMP JUMPDEST PUSH0 DUP2 DUP4 DUP1 MLOAD SWAP1 PUSH1 0x20 ADD KECCAK256 EQ SWAP1 POP SWAP3 SWAP2 POP POP JUMP JUMPDEST PUSH0 PUSH1 0x40 MLOAD SWAP1 POP SWAP1 JUMP JUMPDEST PUSH0 DUP1 REVERT JUMPDEST PUSH0 DUP1 REVERT JUMPDEST PUSH0 DUP2 SWAP1 POP SWAP2 SWAP1 POP JUMP JUMPDEST PUSH2 0x505 DUP2 PUSH2 0x4F3 JUMP JUMPDEST DUP2 EQ PUSH2 0x50F JUMPI PUSH0 DUP1 REVERT JUMPDEST POP JUMP JUMPDEST PUSH0 DUP2 CALLDATALOAD SWAP1 POP PUSH2 0x520 DUP2 PUSH2 0x4FC JUMP JUMPDEST SWAP3 SWAP2 POP POP JUMP JUMPDEST PUSH0 PUSH1 0x20 DUP3 DUP5 SUB SLT ISZERO PUSH2 0x53B JUMPI PUSH2 0x53A PUSH2 0x4EB JUMP JUMPDEST JUMPDEST PUSH0 PUSH2 0x548 DUP5 DUP3 DUP6 ADD PUSH2 0x512 JUMP JUMPDEST SWAP2 POP POP SWAP3 SWAP2 POP POP JUMP JUMPDEST PUSH0 DUP2 MLOAD SWAP1 POP SWAP2 SWAP1 POP JUMP JUMPDEST PUSH0 DUP3 DUP3 MSTORE PUSH1 0x20 DUP3 ADD SWAP1 POP SWAP3 SWAP2 POP POP JUMP JUMPDEST DUP3 DUP2 DUP4 MCOPY PUSH0 DUP4 DUP4 ADD MSTORE POP POP POP JUMP JUMPDEST PUSH0 PUSH1 0x1F NOT PUSH1 0x1F DUP4 ADD AND SWAP1 POP SWAP2 SWAP1 POP JUMP JUMPDEST PUSH0 PUSH2 0x593 DUP3 PUSH2 0x551 JUMP JUMPDEST PUSH2 0x59D DUP2 DUP6 PUSH2 0x55B JUMP JUMPDEST SWAP4 POP PUSH2 0x5AD DUP2 DUP6 PUSH1 0x20 DUP7 ADD PUSH2 0x56B JUMP JUMPDEST PUSH2 0x5B6 DUP2 PUSH2 0x579 JUMP JUMPDEST DUP5 ADD SWAP2 POP POP SWAP3 SWAP2 POP POP JUMP JUMPDEST PUSH0 PUSH20 0xFFFFFFFFFFFFFFFFFFFFFFFFFFFFFFFFFFFFFFFF DUP3 AND SWAP1 POP SWAP2 SWAP1 POP JUMP JUMPDEST PUSH0 PUSH2 0x5EA DUP3 PUSH2 0x5C1 JUMP JUMPDEST SWAP1 POP SWAP2 SWAP1 POP JUMP JUMPDEST PUSH2 0x5FA DUP2 PUSH2 0x5E0 JUMP JUMPDEST DUP3 MSTORE POP POP JUMP JUMPDEST PUSH0 PUSH1 0x40 DUP3 ADD SWAP1 POP DUP2 DUP2 SUB PUSH0 DUP4 ADD MSTORE PUSH2 0x618 DUP2 DUP6 PUSH2 0x589 JUMP JUMPDEST SWAP1 POP PUSH2 0x627 PUSH1 0x20 DUP4 ADD DUP5 PUSH2 0x5F1 JUMP JUMPDEST SWAP4 SWAP3 POP POP POP JUMP JUMPDEST PUSH0 DUP1 REVERT JUMPDEST PUSH0 DUP1 REVERT JUMPDEST PUSH32 0x4E487B7100000000000000000000000000000000000000000000000000000000 PUSH0 MSTORE PUSH1 0x41 PUSH1 0x4 MSTORE PUSH1 0x24 PUSH0 REVERT JUMPDEST PUSH2 0x66C DUP3 PUSH2 0x579 JUMP JUMPDEST DUP2 ADD DUP2 DUP2 LT PUSH8 0xFFFFFFFFFFFFFFFF DUP3 GT OR ISZERO PUSH2 0x68B JUMPI PUSH2 0x68A PUSH2 0x636 JUMP JUMPDEST JUMPDEST DUP1 PUSH1 0x40 MSTORE POP POP POP JUMP JUMPDEST PUSH0 PUSH2 0x69D PUSH2 0x4E2 JUMP JUMPDEST SWAP1 POP PUSH2 0x6A9 DUP3 DUP3 PUSH2 0x663 JUMP JUMPDEST SWAP2 SWAP1 POP JUMP JUMPDEST PUSH0 PUSH8 0xFFFFFFFFFFFFFFFF DUP3 GT ISZERO PUSH2 0x6C8 JUMPI PUSH2 0x6C7 PUSH2 0x636 JUMP JUMPDEST JUMPDEST PUSH2 0x6D1 DUP3 PUSH2 0x579 JUMP JUMPDEST SWAP1 POP PUSH1 0x20 DUP2 ADD SWAP1 POP SWAP2 SWAP1 POP JUMP JUMPDEST DUP3 DUP2 DUP4 CALLDATACOPY PUSH0 DUP4 DUP4 ADD MSTORE POP POP POP JUMP JUMPDEST PUSH0 PUSH2 0x6FE PUSH2 0x6F9 DUP5 PUSH2 0x6AE JUMP JUMPDEST PUSH2 0x694 JUMP JUMPDEST SWAP1 POP DUP3 DUP2 MSTORE PUSH1 0x20 DUP2 ADD DUP5 DUP5 DUP5 ADD GT ISZERO PUSH2 0x71A JUMPI PUSH2 0x719 PUSH2 0x632 JUMP JUMPDEST JUMPDEST PUSH2 0x725 DUP5 DUP3 DUP6 PUSH2 0x6DE JUMP JUMPDEST POP SWAP4 SWAP3 POP POP POP JUMP JUMPDEST PUSH0 DUP3 PUSH1 0x1F DUP4 ADD SLT PUSH2 0x741 JUMPI PUSH2 0x740 PUSH2 0x62E JUMP JUMPDEST JUMPDEST DUP2 CALLDATALOAD PUSH2 0x751 DUP5 DUP3 PUSH1 0x20 DUP7 ADD PUSH2 0x6EC JUMP JUMPDEST SWAP2 POP POP SWAP3 SWAP2 POP POP JUMP JUMPDEST PUSH2 0x763 DUP2 PUSH2 0x5E0 JUMP JUMPDEST DUP2 EQ PUSH2 0x76D JUMPI PUSH0 DUP1 REVERT JUMPDEST POP JUMP JUMPDEST PUSH0 DUP2 CALLDATALOAD SWAP1 POP PUSH2 0x77E DUP2 PUSH2 0x75A JUMP JUMPDEST SWAP3 SWAP2 POP POP JUMP JUMPDEST PUSH0 DUP1 PUSH0 PUSH1 0x60 DUP5 DUP7 SUB SLT ISZERO PUSH2 0x79B JUMPI PUSH2 0x79A PUSH2 0x4EB JUMP JUMPDEST JUMPDEST PUSH0 PUSH2 0x7A8 DUP7 DUP3 DUP8 ADD PUSH2 0x512 JUMP JUMPDEST SWAP4 POP POP PUSH1 0x20 DUP5 ADD CALLDATALOAD PUSH8 0xFFFFFFFFFFFFFFFF DUP2 GT ISZERO PUSH2 0x7C9 JUMPI PUSH2 0x7C8 PUSH2 0x4EF JUMP JUMPDEST JUMPDEST PUSH2 0x7D5 DUP7 DUP3 DUP8 ADD PUSH2 0x72D JUMP JUMPDEST SWAP3 POP POP PUSH1 0x40 PUSH2 0x7E6 DUP7 DUP3 DUP8 ADD PUSH2 0x770 JUMP JUMPDEST SWAP2 POP POP SWAP3 POP SWAP3 POP SWAP3 JUMP JUMPDEST PUSH0 DUP1 PUSH1 0x40 DUP4 DUP6 SUB SLT ISZERO PUSH2 0x806 JUMPI PUSH2 0x805 PUSH2 0x4EB JUMP JUMPDEST JUMPDEST PUSH0 PUSH2 0x813 DUP6 DUP3 DUP7 ADD PUSH2 0x512 JUMP JUMPDEST SWAP3 POP POP PUSH1 0x20 DUP4 ADD CALLDATALOAD PUSH8 0xFFFFFFFFFFFFFFFF DUP2 GT ISZERO PUSH2 0x834 JUMPI PUSH2 0x833 PUSH2 0x4EF JUMP JUMPDEST JUMPDEST PUSH2 0x840 DUP6 DUP3 DUP7 ADD PUSH2 0x72D JUMP JUMPDEST SWAP2 POP POP SWAP3 POP SWAP3 SWAP1 POP JUMP JUMPDEST PUSH0 DUP2 ISZERO ISZERO SWAP1 POP SWAP2 SWAP1 POP JUMP JUMPDEST PUSH2 0x85E DUP2 PUSH2 0x84A JUMP JUMPDEST DUP3 MSTORE POP POP JUMP JUMPDEST PUSH0 PUSH1 0x20 DUP3 ADD SWAP1 POP PUSH2 0x877 PUSH0 DUP4 ADD DUP5 PUSH2 0x855 JUMP JUMPDEST SWAP3 SWAP2 POP POP JUMP JUMPDEST PUSH0 DUP3 DUP3 MSTORE PUSH1 0x20 DUP3 ADD SWAP1 POP SWAP3 SWAP2 POP POP JUMP JUMPDEST PUSH32 0x5472616E73616374696F6E20646F6573206E6F74206578697374000000000000 PUSH0 DUP3 ADD MSTORE POP JUMP JUMPDEST PUSH0 PUSH2 0x8C1 PUSH1 0x1A DUP4 PUSH2 0x87D JUMP JUMPDEST SWAP2 POP PUSH2 0x8CC DUP3 PUSH2 0x88D JUMP JUMPDEST PUSH1 0x20 DUP3 ADD SWAP1 POP SWAP2 SWAP1 POP JUMP JUMPDEST PUSH0 PUSH1 0x20 DUP3 ADD SWAP1 POP DUP2 DUP2 SUB PUSH0 DUP4 ADD MSTORE PUSH2 0x8EE DUP2 PUSH2 0x8B5 JUMP JUMPDEST SWAP1 POP SWAP2 SWAP1 POP JUMP JUMPDEST PUSH32 0x4E487B7100000000000000000000000000000000000000000000000000000000 PUSH0 MSTORE PUSH1 0x22 PUSH1 0x4 MSTORE PUSH1 0x24 PUSH0 REVERT JUMPDEST PUSH0 PUSH1 0x2 DUP3 DIV SWAP1 POP PUSH1 0x1 DUP3 AND DUP1 PUSH2 0x939 JUMPI PUSH1 0x7F DUP3 AND SWAP2 POP JUMPDEST PUSH1 0x20 DUP3 LT DUP2 SUB PUSH2 0x94C JUMPI PUSH2 0x94B PUSH2 0x8F5 JUMP JUMPDEST JUMPDEST POP SWAP2 SWAP1 POP JUMP JUMPDEST PUSH32 0x5472616E73616374696F6E20616C726561647920657869737473000000000000 PUSH0 DUP3 ADD MSTORE POP JUMP JUMPDEST PUSH0 PUSH2 0x986 PUSH1 0x1A DUP4 PUSH2 0x87D JUMP JUMPDEST SWAP2 POP PUSH2 0x991 DUP3 PUSH2 0x952 JUMP JUMPDEST PUSH1 0x20 DUP3 ADD SWAP1 POP SWAP2 SWAP1 POP JUMP JUMPDEST PUSH0 PUSH1 0x20 DUP3 ADD SWAP1 POP DUP2 DUP2 SUB PUSH0 DUP4 ADD MSTORE PUSH2 0x9B3 DUP2 PUSH2 0x97A JUMP JUMPDEST SWAP1 POP SWAP2 SWAP1 POP JUMP JUMPDEST PUSH0 DUP2 SWAP1 POP DUP2 PUSH0 MSTORE PUSH1 0x20 PUSH0 KECCAK256 SWAP1 POP SWAP2 SWAP1 POP JUMP JUMPDEST PUSH0 PUSH1 0x20 PUSH1 0x1F DUP4 ADD DIV SWAP1 POP SWAP2 SWAP1 POP JUMP JUMPDEST PUSH0 DUP3 DUP3 SHL SWAP1 POP SWAP3 SWAP2 POP POP JUMP JUMPDEST PUSH0 PUSH1 0x8 DUP4 MUL PUSH2 0xA16 PUSH32 0xFFFFFFFFFFFFFFFFFFFFFFFFFFFFFFFFFFFFFFFFFFFFFFFFFFFFFFFFFFFFFFFF DUP3 PUSH2 0x9DB JUMP JUMPDEST PUSH2 0xA20 DUP7 DUP4 PUSH2 0x9DB JUMP JUMPDEST SWAP6 POP DUP1 NOT DUP5 AND SWAP4 POP DUP1 DUP7 AND DUP5 OR SWAP3 POP POP POP SWAP4 SWAP3 POP POP POP JUMP JUMPDEST PUSH0 DUP2 SWAP1 POP SWAP2 SWAP1 POP JUMP JUMPDEST PUSH0 DUP2 SWAP1 POP SWAP2 SWAP1 POP JUMP JUMPDEST PUSH0 PUSH2 0xA64 PUSH2 0xA5F PUSH2 0xA5A DUP5 PUSH2 0xA38 JUMP JUMPDEST PUSH2 0xA41 JUMP JUMPDEST PUSH2 0xA38 JUMP JUMPDEST SWAP1 POP SWAP2 SWAP1 POP JUMP JUMPDEST PUSH0 DUP2 SWAP1 POP SWAP2 SWAP1 POP JUMP JUMPDEST PUSH2 0xA7D DUP4 PUSH2 0xA4A JUMP JUMPDEST PUSH2 0xA91 PUSH2 0xA89 DUP3 PUSH2 0xA6B JUMP JUMPDEST DUP5 DUP5 SLOAD PUSH2 0x9E7 JUMP JUMPDEST DUP3 SSTORE POP POP POP POP JUMP JUMPDEST PUSH0 SWAP1 JUMP JUMPDEST PUSH2 0xAA5 PUSH2 0xA99 JUMP JUMPDEST PUSH2 0xAB0 DUP2 DUP5 DUP5 PUSH2 0xA74 JUMP JUMPDEST POP POP POP JUMP JUMPDEST JUMPDEST DUP2 DUP2 LT ISZERO PUSH2 0xAD3 JUMPI PUSH2 0xAC8 PUSH0 DUP3 PUSH2 0xA9D JUMP JUMPDEST PUSH1 0x1 DUP2 ADD SWAP1 POP PUSH2 0xAB6 JUMP JUMPDEST POP POP JUMP JUMPDEST PUSH1 0x1F DUP3 GT ISZERO PUSH2 0xB18 JUMPI PUSH2 0xAE9 DUP2 PUSH2 0x9BA JUMP JUMPDEST PUSH2 0xAF2 DUP5 PUSH2 0x9CC JUMP JUMPDEST DUP2 ADD PUSH1 0x20 DUP6 LT ISZERO PUSH2 0xB01 JUMPI DUP2 SWAP1 POP JUMPDEST PUSH2 0xB15 PUSH2 0xB0D DUP6 PUSH2 0x9CC JUMP JUMPDEST DUP4 ADD DUP3 PUSH2 0xAB5 JUMP JUMPDEST POP POP JUMPDEST POP POP POP JUMP JUMPDEST PUSH0 DUP3 DUP3 SHR SWAP1 POP SWAP3 SWAP2 POP POP JUMP JUMPDEST PUSH0 PUSH2 0xB38 PUSH0 NOT DUP5 PUSH1 0x8 MUL PUSH2 0xB1D JUMP JUMPDEST NOT DUP1 DUP4 AND SWAP2 POP POP SWAP3 SWAP2 POP POP JUMP JUMPDEST PUSH0 PUSH2 0xB50 DUP4 DUP4 PUSH2 0xB29 JUMP JUMPDEST SWAP2 POP DUP3 PUSH1 0x2 MUL DUP3 OR SWAP1 POP SWAP3 SWAP2 POP POP JUMP JUMPDEST PUSH2 0xB69 DUP3 PUSH2 0x551 JUMP JUMPDEST PUSH8 0xFFFFFFFFFFFFFFFF DUP2 GT ISZERO PUSH2 0xB82 JUMPI PUSH2 0xB81 PUSH2 0x636 JUMP JUMPDEST JUMPDEST PUSH2 0xB8C DUP3 SLOAD PUSH2 0x922 JUMP JUMPDEST PUSH2 0xB97 DUP3 DUP3 DUP6 PUSH2 0xAD7 JUMP JUMPDEST PUSH0 PUSH1 0x20 SWAP1 POP PUSH1 0x1F DUP4 GT PUSH1 0x1 DUP2 EQ PUSH2 0xBC8 JUMPI PUSH0 DUP5 ISZERO PUSH2 0xBB6 JUMPI DUP3 DUP8 ADD MLOAD SWAP1 POP JUMPDEST PUSH2 0xBC0 DUP6 DUP3 PUSH2 0xB45 JUMP JUMPDEST DUP7 SSTORE POP PUSH2 0xC27 JUMP JUMPDEST PUSH1 0x1F NOT DUP5 AND PUSH2 0xBD6 DUP7 PUSH2 0x9BA JUMP JUMPDEST PUSH0 JUMPDEST DUP3 DUP2 LT ISZERO PUSH2 0xBFD JUMPI DUP5 DUP10 ADD MLOAD DUP3 SSTORE PUSH1 0x1 DUP3 ADD SWAP2 POP PUSH1 0x20 DUP6 ADD SWAP5 POP PUSH1 0x20 DUP2 ADD SWAP1 POP PUSH2 0xBD8 JUMP JUMPDEST DUP7 DUP4 LT ISZERO PUSH2 0xC1A JUMPI DUP5 DUP10 ADD MLOAD PUSH2 0xC16 PUSH1 0x1F DUP10 AND DUP3 PUSH2 0xB29 JUMP JUMPDEST DUP4 SSTORE POP JUMPDEST PUSH1 0x1 PUSH1 0x2 DUP9 MUL ADD DUP9 SSTORE POP POP POP JUMPDEST POP POP POP POP POP POP JUMP INVALID LOG2 PUSH5 0x6970667358 0x22 SLT KECCAK256 0x25 DUP2 EXTCODECOPY 0xEF 0xE0 DUP11 KECCAK256 0xD1 0xCE SWAP7 SWAP9 PUSH0 SGT CALLER 0xBA RETURNDATASIZE 0xFC BALANCE PUSH8 0x8ECD0E4B013BD6D8 BYTE CODECOPY PUSH27 0x5DE164736F6C634300081A00330000000000000000000000000000 "
		},
		"gasEstimates": {
			"creation": {
				"codeDepositCost": "634600",
				"executionCost": "infinite",
				"totalCost": "infinite"
			},
			"external": {
				"getEncryptedTransaction(bytes32)": "infinite",
				"storeEncryptedTransaction(bytes32,bytes,address)": "infinite",
				"transactions(bytes32)": "infinite",
				"verifyEncryptedTransaction(bytes32,bytes)": "infinite"
			},
			"internal": {
				"getFHEVMConfig()": "infinite",
				"verify(bytes32,bytes memory,uint8)": "infinite"
			}
		},
		"methodIdentifiers": {
			"getEncryptedTransaction(bytes32)": "096d99a9",
			"storeEncryptedTransaction(bytes32,bytes,address)": "2eb4bf48",
			"transactions(bytes32)": "642f2eaf",
			"verifyEncryptedTransaction(bytes32,bytes)": "46fe8ca7"
		}
	},
	"abi": [
		{
			"inputs": [
				{
					"internalType": "address",
					"name": "_ACLAddress",
					"type": "address"
				},
				{
					"internalType": "address",
					"name": "_TFHEExecutorAddress",
					"type": "address"
				},
				{
					"internalType": "address",
					"name": "_KMSVerifierAddress",
					"type": "address"
				},
				{
					"internalType": "address",
					"name": "_InputVerifierAddress",
					"type": "address"
				}
			],
			"stateMutability": "nonpayable",
			"type": "constructor"
		},
		{
			"anonymous": false,
			"inputs": [
				{
					"indexed": true,
					"internalType": "bytes32",
					"name": "txHash",
					"type": "bytes32"
				},
				{
					"indexed": true,
					"internalType": "address",
					"name": "recipient",
					"type": "address"
				}
			],
			"name": "TransactionStored",
			"type": "event"
		},
		{
			"inputs": [
				{
					"internalType": "bytes32",
					"name": "txHash",
					"type": "bytes32"
				}
			],
			"name": "getEncryptedTransaction",
			"outputs": [
				{
					"internalType": "bytes",
					"name": "",
					"type": "bytes"
				},
				{
					"internalType": "address",
					"name": "",
					"type": "address"
				}
			],
			"stateMutability": "view",
			"type": "function"
		},
		{
			"inputs": [
				{
					"internalType": "bytes32",
					"name": "txHash",
					"type": "bytes32"
				},
				{
					"internalType": "bytes",
					"name": "encryptedAmount",
					"type": "bytes"
				},
				{
					"internalType": "address",
					"name": "recipient",
					"type": "address"
				}
			],
			"name": "storeEncryptedTransaction",
			"outputs": [],
			"stateMutability": "nonpayable",
			"type": "function"
		},
		{
			"inputs": [
				{
					"internalType": "bytes32",
					"name": "",
					"type": "bytes32"
				}
			],
			"name": "transactions",
			"outputs": [
				{
					"internalType": "bytes",
					"name": "encryptedAmount",
					"type": "bytes"
				},
				{
					"internalType": "address",
					"name": "recipient",
					"type": "address"
				}
			],
			"stateMutability": "view",
			"type": "function"
		},
		{
			"inputs": [
				{
					"internalType": "bytes32",
					"name": "txHash",
					"type": "bytes32"
				},
				{
					"internalType": "bytes",
					"name": "proof",
					"type": "bytes"
				}
			],
			"name": "verifyEncryptedTransaction",
			"outputs": [
				{
					"internalType": "bool",
					"name": "",
					"type": "bool"
				}
			],
			"stateMutability": "pure",
			"type": "function"
		}
	]
}