{
	"data": {
		"bytecode": {
			"linkReferences": {},
			"object": "6080604052348015600e575f80fd5b506104cd8061001c5f395ff3fe608060405234801561000f575f80fd5b5060043610610029575f3560e01c80632e817ff01461002d575b5f80fd5b610047600480360381019061004291906102c6565b61005d565b604051610054919061035e565b60405180910390f35b5f84848484604051602001610075949392919061044e565b604051602081830303815290604052805190602001205f1c9050949350505050565b5f604051905090565b5f80fd5b5f80fd5b5f819050919050565b6100ba816100a8565b81146100c4575f80fd5b50565b5f813590506100d5816100b1565b92915050565b5f73ffffffffffffffffffffffffffffffffffffffff82169050919050565b5f610104826100db565b9050919050565b610114816100fa565b811461011e575f80fd5b50565b5f8135905061012f8161010b565b92915050565b5f80fd5b5f80fd5b5f601f19601f8301169050919050565b7f4e487b71000000000000000000000000000000000000000000000000000000005f52604160045260245ffd5b6101838261013d565b810181811067ffffffffffffffff821117156101a2576101a161014d565b5b80604052505050565b5f6101b4610097565b90506101c0828261017a565b919050565b5f67ffffffffffffffff8211156101df576101de61014d565b5b6101e88261013d565b9050602081019050919050565b828183375f83830152505050565b5f610215610210846101c5565b6101ab565b90508281526020810184848401111561023157610230610139565b5b61023c8482856101f5565b509392505050565b5f82601f83011261025857610257610135565b5b8135610268848260208601610203565b91505092915050565b5f7fff0000000000000000000000000000000000000000000000000000000000000082169050919050565b6102a581610271565b81146102af575f80fd5b50565b5f813590506102c08161029c565b92915050565b5f805f80608085870312156102de576102dd6100a0565b5b5f6102eb878288016100c7565b94505060206102fc87828801610121565b935050604085013567ffffffffffffffff81111561031d5761031c6100a4565b5b61032987828801610244565b925050606061033a878288016102b2565b91505092959194509250565b5f819050919050565b61035881610346565b82525050565b5f6020820190506103715f83018461034f565b92915050565b5f819050919050565b61039161038c826100a8565b610377565b82525050565b5f8160601b9050919050565b5f6103ad82610397565b9050919050565b5f6103be826103a3565b9050919050565b6103d66103d1826100fa565b6103b4565b82525050565b5f81519050919050565b5f81905092915050565b8281835e5f83830152505050565b5f610408826103dc565b61041281856103e6565b93506104228185602086016103f0565b80840191505092915050565b5f819050919050565b61044861044382610271565b61042e565b82525050565b5f6104598287610380565b60208201915061046982866103c5565b60148201915061047982856103fe565b91506104858284610437565b6001820191508190509594505050505056fea2646970667358221220dcb719ee577fd5d24903787b90f9cc3859eaef55a7ebf27b22dbb95f338e87d864736f6c634300081a0033",
			"opcodes": "PUSH1 0x80 PUSH1 0x40 MSTORE CALLVALUE DUP1 ISZERO PUSH1 0xE JUMPI PUSH0 DUP1 REVERT JUMPDEST POP PUSH2 0x4CD DUP1 PUSH2 0x1C PUSH0 CODECOPY PUSH0 RETURN INVALID PUSH1 0x80 PUSH1 0x40 MSTORE CALLVALUE DUP1 ISZERO PUSH2 0xF JUMPI PUSH0 DUP1 REVERT JUMPDEST POP PUSH1 0x4 CALLDATASIZE LT PUSH2 0x29 JUMPI PUSH0 CALLDATALOAD PUSH1 0xE0 SHR DUP1 PUSH4 0x2E817FF0 EQ PUSH2 0x2D JUMPI JUMPDEST PUSH0 DUP1 REVERT JUMPDEST PUSH2 0x47 PUSH1 0x4 DUP1 CALLDATASIZE SUB DUP2 ADD SWAP1 PUSH2 0x42 SWAP2 SWAP1 PUSH2 0x2C6 JUMP JUMPDEST PUSH2 0x5D JUMP JUMPDEST PUSH1 0x40 MLOAD PUSH2 0x54 SWAP2 SWAP1 PUSH2 0x35E JUMP JUMPDEST PUSH1 0x40 MLOAD DUP1 SWAP2 SUB SWAP1 RETURN JUMPDEST PUSH0 DUP5 DUP5 DUP5 DUP5 PUSH1 0x40 MLOAD PUSH1 0x20 ADD PUSH2 0x75 SWAP5 SWAP4 SWAP3 SWAP2 SWAP1 PUSH2 0x44E JUMP JUMPDEST PUSH1 0x40 MLOAD PUSH1 0x20 DUP2 DUP4 SUB SUB DUP2 MSTORE SWAP1 PUSH1 0x40 MSTORE DUP1 MLOAD SWAP1 PUSH1 0x20 ADD KECCAK256 PUSH0 SHR SWAP1 POP SWAP5 SWAP4 POP POP POP POP JUMP JUMPDEST PUSH0 PUSH1 0x40 MLOAD SWAP1 POP SWAP1 JUMP JUMPDEST PUSH0 DUP1 REVERT JUMPDEST PUSH0 DUP1 REVERT JUMPDEST PUSH0 DUP2 SWAP1 POP SWAP2 SWAP1 POP JUMP JUMPDEST PUSH2 0xBA DUP2 PUSH2 0xA8 JUMP JUMPDEST DUP2 EQ PUSH2 0xC4 JUMPI PUSH0 DUP1 REVERT JUMPDEST POP JUMP JUMPDEST PUSH0 DUP2 CALLDATALOAD SWAP1 POP PUSH2 0xD5 DUP2 PUSH2 0xB1 JUMP JUMPDEST SWAP3 SWAP2 POP POP JUMP JUMPDEST PUSH0 PUSH20 0xFFFFFFFFFFFFFFFFFFFFFFFFFFFFFFFFFFFFFFFF DUP3 AND SWAP1 POP SWAP2 SWAP1 POP JUMP JUMPDEST PUSH0 PUSH2 0x104 DUP3 PUSH2 0xDB JUMP JUMPDEST SWAP1 POP SWAP2 SWAP1 POP JUMP JUMPDEST PUSH2 0x114 DUP2 PUSH2 0xFA JUMP JUMPDEST DUP2 EQ PUSH2 0x11E JUMPI PUSH0 DUP1 REVERT JUMPDEST POP JUMP JUMPDEST PUSH0 DUP2 CALLDATALOAD SWAP1 POP PUSH2 0x12F DUP2 PUSH2 0x10B JUMP JUMPDEST SWAP3 SWAP2 POP POP JUMP JUMPDEST PUSH0 DUP1 REVERT JUMPDEST PUSH0 DUP1 REVERT JUMPDEST PUSH0 PUSH1 0x1F NOT PUSH1 0x1F DUP4 ADD AND SWAP1 POP SWAP2 SWAP1 POP JUMP JUMPDEST PUSH32 0x4E487B7100000000000000000000000000000000000000000000000000000000 PUSH0 MSTORE PUSH1 0x41 PUSH1 0x4 MSTORE PUSH1 0x24 PUSH0 REVERT JUMPDEST PUSH2 0x183 DUP3 PUSH2 0x13D JUMP JUMPDEST DUP2 ADD DUP2 DUP2 LT PUSH8 0xFFFFFFFFFFFFFFFF DUP3 GT OR ISZERO PUSH2 0x1A2 JUMPI PUSH2 0x1A1 PUSH2 0x14D JUMP JUMPDEST JUMPDEST DUP1 PUSH1 0x40 MSTORE POP POP POP JUMP JUMPDEST PUSH0 PUSH2 0x1B4 PUSH2 0x97 JUMP JUMPDEST SWAP1 POP PUSH2 0x1C0 DUP3 DUP3 PUSH2 0x17A JUMP JUMPDEST SWAP2 SWAP1 POP JUMP JUMPDEST PUSH0 PUSH8 0xFFFFFFFFFFFFFFFF DUP3 GT ISZERO PUSH2 0x1DF JUMPI PUSH2 0x1DE PUSH2 0x14D JUMP JUMPDEST JUMPDEST PUSH2 0x1E8 DUP3 PUSH2 0x13D JUMP JUMPDEST SWAP1 POP PUSH1 0x20 DUP2 ADD SWAP1 POP SWAP2 SWAP1 POP JUMP JUMPDEST DUP3 DUP2 DUP4 CALLDATACOPY PUSH0 DUP4 DUP4 ADD MSTORE POP POP POP JUMP JUMPDEST PUSH0 PUSH2 0x215 PUSH2 0x210 DUP5 PUSH2 0x1C5 JUMP JUMPDEST PUSH2 0x1AB JUMP JUMPDEST SWAP1 POP DUP3 DUP2 MSTORE PUSH1 0x20 DUP2 ADD DUP5 DUP5 DUP5 ADD GT ISZERO PUSH2 0x231 JUMPI PUSH2 0x230 PUSH2 0x139 JUMP JUMPDEST JUMPDEST PUSH2 0x23C DUP5 DUP3 DUP6 PUSH2 0x1F5 JUMP JUMPDEST POP SWAP4 SWAP3 POP POP POP JUMP JUMPDEST PUSH0 DUP3 PUSH1 0x1F DUP4 ADD SLT PUSH2 0x258 JUMPI PUSH2 0x257 PUSH2 0x135 JUMP JUMPDEST JUMPDEST DUP2 CALLDATALOAD PUSH2 0x268 DUP5 DUP3 PUSH1 0x20 DUP7 ADD PUSH2 0x203 JUMP JUMPDEST SWAP2 POP POP SWAP3 SWAP2 POP POP JUMP JUMPDEST PUSH0 PUSH32 0xFF00000000000000000000000000000000000000000000000000000000000000 DUP3 AND SWAP1 POP SWAP2 SWAP1 POP JUMP JUMPDEST PUSH2 0x2A5 DUP2 PUSH2 0x271 JUMP JUMPDEST DUP2 EQ PUSH2 0x2AF JUMPI PUSH0 DUP1 REVERT JUMPDEST POP JUMP JUMPDEST PUSH0 DUP2 CALLDATALOAD SWAP1 POP PUSH2 0x2C0 DUP2 PUSH2 0x29C JUMP JUMPDEST SWAP3 SWAP2 POP POP JUMP JUMPDEST PUSH0 DUP1 PUSH0 DUP1 PUSH1 0x80 DUP6 DUP8 SUB SLT ISZERO PUSH2 0x2DE JUMPI PUSH2 0x2DD PUSH2 0xA0 JUMP JUMPDEST JUMPDEST PUSH0 PUSH2 0x2EB DUP8 DUP3 DUP9 ADD PUSH2 0xC7 JUMP JUMPDEST SWAP5 POP POP PUSH1 0x20 PUSH2 0x2FC DUP8 DUP3 DUP9 ADD PUSH2 0x121 JUMP JUMPDEST SWAP4 POP POP PUSH1 0x40 DUP6 ADD CALLDATALOAD PUSH8 0xFFFFFFFFFFFFFFFF DUP2 GT ISZERO PUSH2 0x31D JUMPI PUSH2 0x31C PUSH2 0xA4 JUMP JUMPDEST JUMPDEST PUSH2 0x329 DUP8 DUP3 DUP9 ADD PUSH2 0x244 JUMP JUMPDEST SWAP3 POP POP PUSH1 0x60 PUSH2 0x33A DUP8 DUP3 DUP9 ADD PUSH2 0x2B2 JUMP JUMPDEST SWAP2 POP POP SWAP3 SWAP6 SWAP2 SWAP5 POP SWAP3 POP JUMP JUMPDEST PUSH0 DUP2 SWAP1 POP SWAP2 SWAP1 POP JUMP JUMPDEST PUSH2 0x358 DUP2 PUSH2 0x346 JUMP JUMPDEST DUP3 MSTORE POP POP JUMP JUMPDEST PUSH0 PUSH1 0x20 DUP3 ADD SWAP1 POP PUSH2 0x371 PUSH0 DUP4 ADD DUP5 PUSH2 0x34F JUMP JUMPDEST SWAP3 SWAP2 POP POP JUMP JUMPDEST PUSH0 DUP2 SWAP1 POP SWAP2 SWAP1 POP JUMP JUMPDEST PUSH2 0x391 PUSH2 0x38C DUP3 PUSH2 0xA8 JUMP JUMPDEST PUSH2 0x377 JUMP JUMPDEST DUP3 MSTORE POP POP JUMP JUMPDEST PUSH0 DUP2 PUSH1 0x60 SHL SWAP1 POP SWAP2 SWAP1 POP JUMP JUMPDEST PUSH0 PUSH2 0x3AD DUP3 PUSH2 0x397 JUMP JUMPDEST SWAP1 POP SWAP2 SWAP1 POP JUMP JUMPDEST PUSH0 PUSH2 0x3BE DUP3 PUSH2 0x3A3 JUMP JUMPDEST SWAP1 POP SWAP2 SWAP1 POP JUMP JUMPDEST PUSH2 0x3D6 PUSH2 0x3D1 DUP3 PUSH2 0xFA JUMP JUMPDEST PUSH2 0x3B4 JUMP JUMPDEST DUP3 MSTORE POP POP JUMP JUMPDEST PUSH0 DUP2 MLOAD SWAP1 POP SWAP2 SWAP1 POP JUMP JUMPDEST PUSH0 DUP2 SWAP1 POP SWAP3 SWAP2 POP POP JUMP JUMPDEST DUP3 DUP2 DUP4 MCOPY PUSH0 DUP4 DUP4 ADD MSTORE POP POP POP JUMP JUMPDEST PUSH0 PUSH2 0x408 DUP3 PUSH2 0x3DC JUMP JUMPDEST PUSH2 0x412 DUP2 DUP6 PUSH2 0x3E6 JUMP JUMPDEST SWAP4 POP PUSH2 0x422 DUP2 DUP6 PUSH1 0x20 DUP7 ADD PUSH2 0x3F0 JUMP JUMPDEST DUP1 DUP5 ADD SWAP2 POP POP SWAP3 SWAP2 POP POP JUMP JUMPDEST PUSH0 DUP2 SWAP1 POP SWAP2 SWAP1 POP JUMP JUMPDEST PUSH2 0x448 PUSH2 0x443 DUP3 PUSH2 0x271 JUMP JUMPDEST PUSH2 0x42E JUMP JUMPDEST DUP3 MSTORE POP POP JUMP JUMPDEST PUSH0 PUSH2 0x459 DUP3 DUP8 PUSH2 0x380 JUMP JUMPDEST PUSH1 0x20 DUP3 ADD SWAP2 POP PUSH2 0x469 DUP3 DUP7 PUSH2 0x3C5 JUMP JUMPDEST PUSH1 0x14 DUP3 ADD SWAP2 POP PUSH2 0x479 DUP3 DUP6 PUSH2 0x3FE JUMP JUMPDEST SWAP2 POP PUSH2 0x485 DUP3 DUP5 PUSH2 0x437 JUMP JUMPDEST PUSH1 0x1 DUP3 ADD SWAP2 POP DUP2 SWAP1 POP SWAP6 SWAP5 POP POP POP POP POP JUMP INVALID LOG2 PUSH5 0x6970667358 0x22 SLT KECCAK256 0xDC 0xB7 NOT 0xEE JUMPI PUSH32 0xD5D24903787B90F9CC3859EAEF55A7EBF27B22DBB95F338E87D864736F6C6343 STOP ADDMOD BYTE STOP CALLER "
		},
		"gasEstimates": {
			"creation": {
				"codeDepositCost": "245800",
				"executionCost": "285",
				"totalCost": "246085"
			},
			"external": {
				"verifyCiphertext(bytes32,address,bytes,bytes1)": "infinite"
			}
		},
		"methodIdentifiers": {
			"verifyCiphertext(bytes32,address,bytes,bytes1)": "2e817ff0"
		}
	},
	"abi": [
		{
			"inputs": [
				{
					"internalType": "bytes32",
					"name": "inputHandle",
					"type": "bytes32"
				},
				{
					"internalType": "address",
					"name": "sender",
					"type": "address"
				},
				{
					"internalType": "bytes",
					"name": "inputProof",
					"type": "bytes"
				},
				{
					"internalType": "bytes1",
					"name": "toType",
					"type": "bytes1"
				}
			],
			"name": "verifyCiphertext",
			"outputs": [
				{
					"internalType": "uint256",
					"name": "",
					"type": "uint256"
				}
			],
			"stateMutability": "pure",
			"type": "function"
		}
	]
}